:020000040000fa
:080000000002040000000000f2
:020000040000fa
:04000800fe020000f4
:020000040000fa
:04000c00fe020000f0
:020000040000fa
:04001000fe020000ec
:020000040000fa
:04001400fe020000e8
:020000040000fa
:04001800fe020000e4
:020000040000fa
:04001c00fe020000e0
:020000040000fa
:04002000fe020000dc
:020000040000fa
:04002400fe020000d8
:020000040000fa
:04002800fe020000d4
:020000040000fa
:04002c00fe020000d0
:020000040000fa
:04003000fe020000cc
:020000040000fa
:04003400fe020000c8
:020000040000fa
:04003800fe020000c4
:020000040000fa
:04003c00fe020000c0
:020000040000fa
:04004000fe020000bc
:020000040000fa
:04004400fe020000b8
:020000040000fa
:04004800fe020000b4
:020000040000fa
:04004c00fe020000b0
:020000040000fa
:04005000fe020000ac
:020000040000fa
:04005400c8020000de
:020000040000fa
:04005800fe020000a4
:020000040000fa
:04005c00fe020000a0
:020000040000fa
:04006000fe0200009c
:020000040000fa
:04006400fe02000098
:020000040000fa
:04006800fe02000094
:020000040000fa
:04006c00fe02000090
:020000040000fa
:04007000fe0200008c
:020000040000fa
:04007400fe02000088
:020000040000fa
:04007800fe02000084
:020000040000fa
:04007c00fe02000080
:020000040000fa
:04008000fe0200007c
:020000040000fa
:04008400fe02000078
:020000040000fa
:04008800fe02000074
:020000040000fa
:04008c00fe02000070
:020000040000fa
:04009000fe0200006c
:020000040000fa
:04009400fe02000068
:020000040000fa
:04009800fe02000064
:020000040000fa
:04009c00fe02000060
:020000040000fa
:0400a000e802000072
:020000040000fa
:0400a400fe02000058
:020000040000fa
:0400a800fe02000054
:020000040000fa
:0400ac00fe02000050
:020000040000fa
:0400b000fe0200004c
:020000040000fa
:0400b400fe02000048
:020000040000fa
:0400b800fe02000044
:020000040000fa
:0400bc00fe02000040
:020000040000fa
:0400c000fe0200003c
:020000040000fa
:0400c400fe02000038
:020000040000fa
:0400c800fe02000034
:020000040000fa
:0400cc00fe02000030
:020000040000fa
:0400d000fe0200002c
:020000040000fa
:0400d400fe02000028
:020000040000fa
:0400d800fe02000024
:020000040000fa
:0400dc00fe02000020
:020000040000fa
:0400e000fe0200001c
:020000040000fa
:0400e400fe02000018
:020000040000fa
:0400e800fe02000014
:020000040000fa
:0400ec00fe02000010
:020000040000fa
:0400f000fe0200000c
:020000040000fa
:0400f400fe02000008
:020000040000fa
:0400f800fe02000004
:020000040000fa
:0400fc00fe02000000
:020000040000fa
:04010000fe020000fb
:020000040000fa
:04010400fe020000f7
:020000040000fa
:04010800fe020000f3
:020000040000fa
:04010c00fe020000ef
:020000040000fa
:04011000fe020000eb
:020000040000fa
:04011400fe020000e7
:020000040000fa
:04011800fe020000e3
:020000040000fa
:04011c00fe020000df
:020000040000fa
:04012000fe020000db
:020000040000fa
:04012400fe020000d7
:020000040000fa
:04012800fe020000d3
:020000040000fa
:04012c00fe020000cf
:020000040000fa
:04013000fe020000cb
:020000040000fa
:04013400fe020000c7
:020000040000fa
:04013800fe020000c3
:020000040000fa
:04013c00fe020000bf
:020000040000fa
:04014000fe020000bb
:020000040000fa
:04014400fe020000b7
:020000040000fa
:04014800fe020000b3
:020000040000fa
:04014c00fe020000af
:020000040000fa
:04015000fe020000ab
:020000040000fa
:04015400fe020000a7
:020000040000fa
:04015800fe020000a3
:020000040000fa
:04015c00fe0200009f
:020000040000fa
:04020800fe020000f2
:020000040000fa
:04020c00fe020000ee
:020000040000fa
:04021000fe020000ea
:020000040000fa
:04021400fe020000e6
:020000040000fa
:04021800fe020000e2
:020000040000fa
:04021c00fe020000de
:020000040000fa
:04022000fe020000da
:020000040000fa
:04022400fe020000d6
:020000040000fa
:04022800fe020000d2
:020000040000fa
:04022c00fe020000ce
:020000040000fa
:04023000fe020000ca
:020000040000fa
:04023400fe020000c6
:020000040000fa
:04023800fe020000c2
:020000040000fa
:04023c00fe020000be
:020000040000fa
:04024000fe020000ba
:020000040000fa
:04024400fe020000b6
:020000040000fa
:04024800fe020000b2
:020000040000fa
:04024c00fe020000ae
:020000040000fa
:04025000fe020000aa
:020000040000fa
:04025400c8020000dc
:020000040000fa
:04025800fe020000a2
:020000040000fa
:04025c00fe0200009e
:020000040000fa
:04026000fe0200009a
:020000040000fa
:04026400fe02000096
:020000040000fa
:04026800fe02000092
:020000040000fa
:04026c00fe0200008e
:020000040000fa
:04027000fe0200008a
:020000040000fa
:04027400fe02000086
:020000040000fa
:04027800fe02000082
:020000040000fa
:04027c00fe0200007e
:020000040000fa
:04028000fe0200007a
:020000040000fa
:04028400fe02000076
:020000040000fa
:04028800fe02000072
:020000040000fa
:04028c00fe0200006e
:020000040000fa
:04029000fe0200006a
:020000040000fa
:04029400fe02000066
:020000040000fa
:04029800fe02000062
:020000040000fa
:04029c00fe0200005e
:020000040000fa
:0402a000e802000070
:020000040000fa
:0402a400fe02000056
:020000040000fa
:0402a800fe02000052
:020000040000fa
:0402ac00fe0200004e
:020000040000fa
:0402b000fe0200004a
:020000040000fa
:0402b400fe02000046
:020000040000fa
:0402b800fe02000042
:020000040000fa
:0402bc00fe0200003e
:020000040000fa
:0402c000fe0200003a
:020000040000fa
:0402c400fe02000036
:020000040000fa
:0402c800fe02000032
:020000040000fa
:0402cc00fe0200002e
:020000040000fa
:0402d000fe0200002a
:020000040000fa
:0402d400fe02000026
:020000040000fa
:0402d800fe02000022
:020000040000fa
:0402dc00fe0200001e
:020000040000fa
:0402e000fe0200001a
:020000040000fa
:0402e400fe02000016
:020000040000fa
:0402e800fe02000012
:020000040000fa
:0402ec00fe0200000e
:020000040000fa
:0402f000fe0200000a
:020000040000fa
:0402f400fe02000006
:020000040000fa
:0402f800fe02000002
:020000040000fa
:0402fc00fe020000fe
:020000040000fa
:04030000fe020000f9
:020000040000fa
:04030400fe020000f5
:020000040000fa
:04030800fe020000f1
:020000040000fa
:04030c00fe020000ed
:020000040000fa
:04031000fe020000e9
:020000040000fa
:04031400fe020000e5
:020000040000fa
:04031800fe020000e1
:020000040000fa
:04031c00fe020000dd
:020000040000fa
:04032000fe020000d9
:020000040000fa
:04032400fe020000d5
:020000040000fa
:04032800fe020000d1
:020000040000fa
:04032c00fe020000cd
:020000040000fa
:04033000fe020000c9
:020000040000fa
:04033400fe020000c5
:020000040000fa
:04033800fe020000c1
:020000040000fa
:04033c00fe020000bd
:020000040000fa
:04034000fe020000b9
:020000040000fa
:04034400fe020000b5
:020000040000fa
:04034800fe020000b1
:020000040000fa
:04034c00fe020000ad
:020000040000fa
:04035000fe020000a9
:020000040000fa
:04035400fe020000a5
:020000040000fa
:04035800fe020000a1
:020000040000fa
:04035c00fe0200009d
:020000040000fa
:100400004f8720000edf20000e0188000000000052
:10041000000020000000e000020032000001200087
:100420002002880014000700760007000000e000aa
:1004300003003a0040aa200001002000020037001b
:100440000000200001002000810f70000100320038
:1004500014000700000020000000e000020032004d
:100460000000020000000000ca0a020000000000b4
:100470000040da000000fe004440a90020092000ee
:100480000000e0000300320000002000a00188000e
:100490004440a800000006008a1f78008b1f7800e7
:1004a0000000060091018800800478000000eb0045
:1004b0001a003700e284440032a0b4009905ba0063
:1004c000e284440032a0b4009906ba00e2844400f9
:1004d00032a0b4000006eb00476fde00fd07b2005b
:1004e000636ce10003003a00ebff07000000eb0043
:1004f0000a003700606ce10004003a00005deb0088
:100500008b05e900fdff3e00040037006168e10053
:10051000010032000086eb000b00070019c7ba008b
:100520001905ba000e04e00003003a000a00e000da
:10053000e0ff3a0000000600fe07b2009e018800be
:100540008a047800f5ff3700395dba008b05e900b1
:100550000c003200295dba008b05e900080032006a
:100560000c00e00003003a00e284440032a0b40032
:10057000f5ff370019ddba008b05e900faff3a00f4
:100580008904e800e184440032a0b40000000600c1
:10059000801f78000000fa0005003700301180004d
:1005a0000040780070e8b70010c0b3006be8b700f7
:1005b00010118000610060000000e000f7ff3a00c9
:1005c0008560a9000080fa004f0078000040060016
:1005d000801f78000000fa0087c0a900b0118000d9
:1005e000004078006ae8b70010c0b3006be8b700bd
:1005f0000080fa004f007800004006000040da005a
:100600000000fe00000005008000780004003700b4
:100610003104e00002003a00000051000000060032
:10062000010178000108a300f9ff3a008101780078
:1006300031017800f4ef2f00020242000281ea004b
:10064000020162000408280004016100f7ff320083
:1006500083007800010178003104e000fdff3a00da
:0806600000005100000006003b
:020000040000fa
:10066800415400002b490000443d00004154000063
:100678002b5300004e3d0000415400002b53000056
:10068800573d0000415400002b5000005752000015
:100698003d410000542b0000424100004e44000040
:1006a8003d410000542b000046520000513d00001f
:1006b800415400002b460000573d00004154000003
:1006c8002b540000435800004f570000553d0000d0
:1006d800415400002b540000583d00003f0d00001d
:1006e8000043000068650000636b0000696e00004d
:1006f8006720000069660000204b0000494d00009b
:1007080020530000756300006365000073730000e8
:10071800667500006c3a00002070000072650000e9
:1007280073730000206500006e740000657200009d
:1007380020610000667400006572000020650000fa
:100748006e74000065720000696e0000672000008a
:1007580041540000206300006f6d00006d610000cf
:100768006e6400000d0a0000000000000a7400001a
:100778006f6f0000206c00006f6e0000670a0000b9
:040788000d00000060
:020000040000fa
:10078c000200fa00004f7800c002a9001e41780058
:10079c00a1852000824878001e4078000004e0000b
:1007ac0002003200c402a80001003700c402a900f4
:1007bc00c842a800c8e2a9000080fa0000000600a8
:1007cc000200fa005037280082020700bd00070023
:1007dc000080fb00000f78000140fe001e00780036
:1007ec0090407800b0c2b30080cf500002003a00b5
:1007fc0010c0b300010037000040eb000080fa008d
:10080c00000006001c00fa00205f98000040eb007e
:10081c00004f78005ac8bf000004e00030003200de
:10082c00390007000004e0000200320010c0b300e1
:10083c00330037002e5890000004e0002f003a00df
:10084c000040eb00004f78000000eb001007980010
:10085c001e003700e6004700090009008018eb0075
:10086c000040eb00004f78006600470041c1b30028
:10087c00850207000000eb002007980008003700f5
:10088c00e60047002e0090000080400010407800e9
:10089c001e4f40002e0090000000e800200798003a
:1008ac002e009000f30f5000f5ff34001e4078002e
:1008bc000004e0000200320010c0b300100037004a
:1008cc001e0090000000e800100798001e00900029
:1008dc00e10f5000dfff34000040eb000800370050
:1008ec002e5890000004a2000080fb000000ea00db
:1008fc004f00de00004078000100370010c0b3004c
:10090c000080fa00000006000000fa005ac8bf0080
:10091c000004e00008003200201680006100600036
:10092c000000e000020032000040eb000300370042
:10093c0010c0b300010037000040eb000080fa004b
:10094c00000006000200fa000068ef0072c8bf0049
:10095c00e14f500003003a00408120001d020700c7
:10096c0002003700408120008e0107000040eb00a0
:10097c00004f78001500370072c8bf00e14f5000df
:10098c0004003a000080200041c1b3003e02070081
:10099c00030037000080200041c1b300ae01070006
:1009ac0000c8bf000004e0000700320021802000d6
:1009bc009140780080c5b30080cf500002003a000f
:1009cc0010002000050037001e4fe8001e40780084
:1009dc00e94f5000e8ff3600400020000080fa008c
:1009ec00000006000600fa00100798004147980026
:1009fc000040eb00004f7800080037001e81fb0020
:100a0c001e80fb00c1362800e140780040812000a8
:100a1c0000004100014878001e4fe8001e4078009d
:100a2c00e54f5000f5ff36000040eb0010479800f2
:100a3c000f0037001e4090000080fb006601400054
:100a4c001e4090000080fb009e0090000080400043
:100a5c001040780080407800408120000000410068
:100a6c00014878001e4090000040e80010479800b4
:100a7c009e4090004e40900080cf5000edff39001a
:100a8c004e4090000080fb00e600400040812000ba
:100a9c0000804000d1c0b300014878004e40900067
:100aac000080fb00e70040004081200000804000f7
:100abc008040eb0001487800a2ff07000080fa009c
:100acc00000006000200fa000040eb00004f780026
:100adc00080037001e81fb001e80fb0041332800fc
:100aec00e14078004081200000004100014878007e
:100afc001e4fe8001e407800e54f5000f5ff360011
:100b0c000040eb00004f7800090037001e80fb000e
:100b1c00660140001e80fb0021372800e140780070
:100b2c004081200000004100014878001e4fe80081
:100b3c001e407800e24f5000f4ff360081ff0700a2
:100b4c0000802000004078000080fa0000000600c1
:100b5c000200fa000040eb00004f7800080037005c
:100b6c001e81fb001e80fb00a1332800e1407800b1
:100b7c004081200000004100014878001e4fe80031
:100b8c001e407800e54f5000f5ff36000040eb00aa
:100b9c00004f7800090037001e80fb006601400002
:100bac001e80fb0021372800e140780040812000a6
:100bbc0000004100014878001e4fe8001e407800fc
:100bcc00e24f5000f4ff36005eff0700008020006b
:100bdc00004078000080fa00000006000200fa00d5
:100bec000040eb00004f7800080037001e81fb002e
:100bfc001e80fb00c1352800e140780040812000b8
:100c0c0000004100014878001e4fe8001e407800ab
:100c1c00e54f5000f5ff36000040eb00004f780028
:100c2c00090037001e80fb00660140001e80fb009f
:100c3c0021372800e140780040812000000041006d
:100c4c00014878001e4fe8001e407800e24f50002b
:100c5c00f4ff36003bff07000080200000407800c6
:100c6c000080fa00000006000200fa000040eb00d1
:100c7c00004f7800080037001e81fb001e80fb002f
:100c8c0061342800e14078004081200000004100e0
:100c9c00014878001e4fe8001e407800e64f5000d7
:100cac00f5ff36000040eb00004f780009003700dc
:100cbc001e80fb00670140001e80fb0021372800ce
:100ccc00e14078004081200000004100014878009c
:100cdc001e4fe8001e407800e24f5000f4ff360033
:100cec0018ff070000802000004078000080fa0008
:100cfc00000006000600fa00100798004147980013
:100d0c000040eb00004f7800080037001e81fb000c
:100d1c001e80fb0041332800e14078004081200018
:100d2c0000004100014878001e4fe8001e4078008a
:100d3c00e54f5000f5ff36000040eb00004f780007
:100d4c000a0037001e80fb00660140001e80fb007d
:100d5c009e00900000804000904078004081200070
:100d6c0000004100014878001e4fe8004e40900002
:100d7c009e40780080cf5000f2ff39004e4090002a
:100d8c000080fb00e6004000408120000080400015
:100d9c00d1c0b300014878004e4090000080fb00a9
:100dac00e700400040812000008040008040eb00c4
:100dbc0001487800e3fe07000080fa0000000600fe
:100dcc000600fa0010079800414798000040eb001d
:100ddc00004f7800080037001e81fb001e80fb00ce
:100dec00a1332800e1407800408120000000410040
:100dfc00014878001e4fe8001e407800e54f500077
:100e0c00f5ff36000040eb00004f78000a00370079
:100e1c001e80fb00660140001e80fb009e009000bf
:100e2c00008040009040780040812000000041008c
:100e3c00014878001e4fe8004e4090009e4078001c
:100e4c0080cf5000f2ff39004e4090000080fb0034
:100e5c00e60040004081200000804000d1c0b3007b
:100e6c00014878004e4090000080fb00e7004000f5
:100e7c0040812000008040008040eb000148780059
:100e8c00b0fe07000080fa00000006000000fa0027
:100e9c0031a2a9003182a9003162a9008111800020
:100eac00f0cf2f00008060008011880030e2a90094
:100ebc0030c2a90030a2a9003082a9003062a8007b
:100ecc008111800090ff2f0000806000801188004d
:100edc003002a900113a80000000270080806000d9
:100eec0000002600808f500003003a00c000200054
:100efc00c01188000f003700113a80000000270055
:100f0c008080600000002500808f500003003a00b4
:100f1c00c0002000c011880006003700113a800084
:100f2c0000002700008060000000e00001003a0093
:100f3c003822ef0033e2a90033a2a80033c2a90083
:100f4c003362a9003342a90091118000f0f32f0005
:100f5c00008060009011880032a2a90087e0a900ef
:100f6c0091058000f0ff28008080600000002300c5
:100f7c00010070009005880097e0a80087c0a900c8
:100f8c0091058000f08f2f000080600000a0a00071
:100f9c009005880097c0a80031e2a8000080fa00f4
:100fac00000006000400fa00100798000000eb0097
:100fbc00000f7800060037001e0090001e00400055
:100fcc001040780011002000070007001e0fe800f9
:100fdc001e00900089fd07009e0f5000f6ff3100a7
:100fec000080fa00000006000400fa00004f7800b0
:100ffc00110798003342a8000b00370000000000d6
:10100c009111800000202000008060000000e000b2
:10101c00fbff3a001e00fb00a01188001e00900090
:10102c000000e900100798001e0090000000e0008e
:10103c00f2ff3a0000000000911180000010200027
:10104c00008060000000e000fbff32003342a9008a
:10105c000080fa00000006000800fa002007980043
:10106c00614798000000eb00000f7800210037006a
:10107c006bc8bf00e14f50001e003a006ac8bf00a9
:10108c00ff4f500018003600a186200091407800d8
:10109c00e0c7b30080cf500013003e006e409000bc
:1010ac000080fb000080e9009e0f5000040031001e
:1010bc00a03b2800bbff07006b68ef001000370057
:1010cc002e0090001e004000a18620009140780068
:1010dc00014878001e0fe8006ac8bf00110020000c
:1010ec00c1ff07003222a9006ac8bf002047980040
:1010fc006b68ef002e409000ed4f5000dcff3a0083
:10110c000080fa00000006000000fa0021a2a900ed
:10111c002182a9002162a90001118000f0cf2f00cb
:10112c00008060000011880020e2a90020c2a90004
:10113c0020a2a9002082a9002062a8000111800031
:10114c0090ff2f0000806000001188002002a90091
:10115c00113a80000000270080806000000026000b
:10116c00808f500002003a00700620004011880069
:10117c0023e2a90023a2a80011118000f0f32f0094
:10118c00008060001011880023c2a9002362a9000e
:10119c008580a9005105800080ff2f000080600031
:1011ac003000b300500588009580a8008560a90028
:1011bc0041058000f0ff28000080600000e0a000e6
:1011cc00400588009560a80021e2a8000080fa0084
:1011dc00000006000400fa00100798000000eb0065
:1011ec00000f7800060037001e0090001e00400023
:1011fc001040780011002000070007001e0fe800c7
:10120c001e009000fdfc07009e0f5000f6ff3e00f4
:10121c000080fa00000006000400fa00004f78007d
:10122c00110798002342a8000b00370000000000b3
:10123c001111800000202000008060000000e00000
:10124c00fbff3a001e80fb00201188001e0090005e
:10125c000000e900100798001e0090000000e0005c
:10126c00f2ff3a0000000000111180000010200075
:10127c00008060000000e000fbff32002342a90068
:10128c000080fa00000006000600fa001007980023
:10129c00414798000000eb00000f78000100370078
:1012ac00000000006bc8bf00e14f5000fcff3a008b
:1012bc0070c8bf00ed4f50000b00320070c8bf006b
:1012cc00ea4f5000080032001e0090001e00400043
:1012dc000187200091407800014878001e0fe8003b
:1012ec006b68ef00efff37001e0090001e004000ff
:1012fc008040eb00014878000080fa0000000600f6
:10130c000200fa00004f7800110020001e40780007
:10131c0035ff0700210037006bc8bf00e14f5000bc
:10132c0018003a006ac8bf00ed4f500003003a00a5
:10133c006b68ef001e4078001d0037006ac8bf00c4
:10134c00ff4f50000d003600a18620009140780020
:10135c00e0c7b30080cf500008003e001100200011
:10136c0080c0b30020ff07006ac8bf00004f7800a0
:10137c006ac8bf00110020001bff07003222a90021
:10138c006b68ef00d1862000914078006fc8bf00d9
:10139c0000c070000004e00004003a001e40780019
:1013ac00ed4f5000dcff3a00010037000000000058
:1013bc000080fa00000006000200fa00004f7800de
:1013cc00110020001e40780007ff070001003700c5
:1013dc00000000006bc8bf00e14f500016003a003f
:1013ec006ac8bf00ff4f50000f003600a1862000d6
:1013fc0091407800e0c7b30080cf50000a003e0057
:10140c001100200080c0b300f7fe07006ac8bf00bf
:10141c00004f78006ac8bf0011002000f2fe0700e0
:10142c003222a9006b68ef003222a9006b68ef0032
:10143c006ac8bf0008003700e186200091407800a0
:10144c006fc8bf0080c070006dc8bf0000c07000c6
:10145c000004e000deff32000080fa00000006000d
:10146c000400fa00100798001e00900001022000f2
:10147c00810f50000b003200411f2000810f5000e3
:10148c0005003200e80f500009003a000000eb00a4
:10149c00000f78000800370060062000000f78006d
:1014ac000500370050052000000f780002003700bf
:1014bc0050052000000f780011028000000e200063
:1014cc000100700010028800213a8000f08f2f007c
:1014dc0000806000203a88001e0178008007200000
:1014ec00a1092000337420008049780081497800dc
:1014fc008249780012002000600420007105200051
:10150c002374200080497800814978008249780052
:10151c0000000000103a8000610060000000e00054
:10152c00fcff3a0011028000f0f12f0000806000f7
:0c153c00100288000080fa000000060089
:020000040000fa
:101548005c0800000e000000020000004142430059
:101558004445460031323300343536003700000048
:10156800000800005c000000000000007208000095
:101578000200000002000000010000006a080000ec
:0c1588000800000000000000000000004f
:020000040000fa
:101594000200fa000080eb0060198800800020003f
:1015a400b1ff07003bfe0700d9fe070010c0b300df
:1015b40075fc07000000eb00000f78001e0fe80028
:0415c400feff3700ef
:020000040000fa
:0200000401f009
:04000000ffffff00ff
:020000040000fa
:0200000401f009
:04000800ffffff00f7
:020000040000fa
:0200000401f009
:04000c0000000000f0
:020000040000fa
:0200000401f009
:040010007b00000071
:020000040000fa
:0200000401f009
:040014005f00000089
:020000040000fa
:0200000401f009
:04001800fb000000e9
:020000040000fa
:0200000401f009
:04001c00c20000001e
:020000040000fa
:0200000401f009
:04002000ff000000dd
:00000001FF
